:100000000C9463000C948B000C948B000C944A03AA
:100010000C944A030C944A030C948B000C948B00B0
:100020000C948B000C948B000C948B000C948B0024
:100030000C948B000C948B000C948B000C948B0014
:100040000C94A8020C948B000C9418030C94F202EC
:100050000C948B000C948B000C948B000C948B00F4
:100060000C948B000C948B0000000008000201002F
:100070000003040700000000000000000000000072
:1000800023002600290000000000240027002A0089
:1000900000000000250028002B00040404040404D0
:1000A0000404020202020202030303030303010227
:1000B00004081020408001020408102001020408F6
:1000C00010201104E30611241FBECFEFD8E0DEBFDD
:1000D000CDBF22E0AEE2B1E001C01D92A134B20773
:1000E000E1F711E0A0E0B1E0E6EEF2E102C0059038
:1000F0000D92AE32B107D9F710E0C2E6D0E004C0ED
:100100002197FE010E946407C136D107C9F70E94FA
:1001100028050C9466090C9400000895CF92DF9294
:10012000EF92FF920F931F93CF93DF936C017A01AD
:100130008B01C0E0D0E0CE15DF0581F0D8016D91D4
:100140008D01D601ED91FC910190F081E02DC60169
:100150000995892B11F02196EECF7E01C701DF9121
:10016000CF911F910F91FF90EF90DF90CF90089566
:10017000FC01538D448D252F30E0842F90E0821BAD
:10018000930B541710F0CF96089501970895FC0132
:10019000918D828D981761F0828DDF01A80FB11DBE
:1001A0005D968C91928D9F5F9F73928F90E00895E2
:1001B0008FEF9FEF0895FC01918D828D981731F09C
:1001C000828DE80FF11D858D90E008958FEF9FEFF0
:1001D0000895FC01918D228D892F90E0805C9F4FC6
:1001E000821B91098F73992708958BE791E00E94F4
:1001F000E90021E0892B09F420E0822F0895FC0119
:10020000848DDF01A80FB11DA35ABF4F2C91848D9F
:1002100090E001968F739927848FA689B7892C93D4
:10022000A089B1898C91837080648C93938D848D27
:10023000981306C00288F389E02D80818F7D80832A
:100240000895EF92FF920F931F93CF93DF93EC01EA
:1002500081E0888F9B8D8C8D981305C0E889F98982
:10026000808185FD26C0F62E0B8D10E00F5F1F4F9D
:100270000F731127E02E8C8DE8120CC00FB607FC0F
:10028000FACFE889F989808185FFF5CFCE010E94F8
:10029000FF00F1CF8B8DFE01E80FF11DE35AFF4FF8
:1002A000F0829FB7F8940B8FEA89FB898081806286
:1002B0000AC09FB7F894EE89FF896083E889F989BD
:1002C00080818370806480839FBF81E090E0DF91B4
:1002D000CF911F910F91FF90EF900895CF93DF93EF
:1002E000EC01888D8823C9F0EA89FB89808185FD2E
:1002F00005C0A889B9898C9186FD0FC00FB607FC8F
:10030000F5CF808185FFF2CFA889B9898C9185FFCF
:10031000EDCFCE010E94FF00E7CFDF91CF9108958E
:1003200080E090E0892B29F00E94F50081110C9467
:10033000000008952091700130917101281739074C
:1003400071F490916E0180916F01981741F0E091E6
:100350006E01F0E0E25DFE4F808190E008958FEF46
:100360009FEF089508951F93CF93DF93DC015C9670
:100370008D919C915D97009739F421E030E01396C0
:100380003C932E9312973BC05196ED91FC9152975E
:1003900050962C915097322F30951FB75E964C9106
:1003A0005E97742F727041FD6095F89440817723B9
:1003B00011F0422B01C043234083EC012197F1F758
:1003C00048E0508160FF02C0522B01C0532350838C
:1003D000EC012197F1F76695415099F780817723D9
:1003E00019F08323808302C0282B20831FBF5C96D3
:1003F0008D919C915D970197F1F781E090E0DF91FD
:10040000CF911F91089520917001309171012817AB
:10041000390771F480916F0120916E0190E0805C4A
:100420009F4F821B910960E470E00E943C07089591
:1004300080E090E0089520917001309171012817BB
:100440003907B9F490916E0180916F01981789F086
:10045000E0916E01F0E0E25DFE4F808120916E013F
:1004600030E02F5F3F4F2F73332720936E0190E0D2
:1004700008958FEF9FEF08952FB7F894809177013B
:1004800090917801A0917901B0917A012FBF80936A
:10049000260290932702A0932802B09329028EE1AE
:1004A00092E00E941B0297FF26C02FB7F89480911C
:1004B000770190917801A0917901B0917A012FBFD5
:1004C00040912602509127026091280270912902E2
:1004D000841B950BA60BB70B40912202509123026F
:1004E000609124027091250284179507A607B7072B
:1004F000B0F28FEF9FEF089580E090E008950E94A2
:1005000051090F931F93CF93DF93EC018881998159
:10051000009729F02A813B812617370788F48B0141
:100520006F5F7F4F0E948B08009761F099838883EB
:100530001B830A832C813D81232B11F4FC01108243
:1005400081E001C080E0DF91CF911F910F9108956C
:100550001F920F920FB60F9211242F933F938F93F8
:100560009F93AF93BF938091770190917801A09171
:100570007901B0917A013091760123E0230F2D3774
:1005800020F40196A11DB11D05C026E8230F029697
:10059000A11DB11D2093760180937701909378017E
:1005A000A0937901B0937A018091720190917301C7
:1005B000A0917401B09175010196A11DB11D8093A8
:1005C000720190937301A0937401B0937501BF9170
:1005D000AF919F918F913F912F910F900FBE0F90F0
:1005E0001F9018951F920F920FB60F9211242F9300
:1005F0003F934F935F936F937F938F939F93AF93AB
:10060000BF93EF93FF938BE791E00E94FF00FF9170
:10061000EF91BF91AF919F918F917F916F915F917A
:100620004F913F912F910F900FBE0F901F901895F3
:100630001F920F920FB60F9211242F938F939F93B7
:10064000EF93FF93E0918B01F0918C018081E09119
:100650009101F091920182FD12C0908180919401EC
:100660008F5F8F7320919501821751F0E091940173
:10067000F0E0E558FE4F958F8093940101C0808192
:10068000FF91EF919F918F912F910F900FBE0F903F
:100690001F9018951F920F920FB60F9211242F934F
:1006A0003F934F935F936F937F938F939F93AF93FA
:1006B000BF93EF93FF93E0917001F0917101309738
:1006C00009F451C0968DA685B785858591FF04C034
:1006D0009C91892329F447C09C91892309F043C048
:1006E000A389B4899C918589809589238C93868977
:1006F00097890197F1F7608D718DA685B78555852E
:1007000038E020E0CB010197F1F7822F90E095953A
:100710008795282F4C91452309F02068315091F797
:10072000868D81FD209580916F0190E001968F73F9
:10073000992730916E01381749F0A0916F01B0E010
:10074000A25DBE4F2C9380936F0103C0868D8160A4
:10075000868F828D938D0197F1F7A389B4899C913F
:100760008589892B8C93FF91EF91BF91AF919F91D8
:100770008F917F916F915F914F913F912F910F904A
:100780000FBE0F901F90189590E0FC01E859FF4FA5
:100790002491FC01E255FF4F3491FC01E656FF4FD6
:1007A000E491EE2309F43CC0222339F1233091F087
:1007B00038F42130A9F0223001F584B58F7D12C0C4
:1007C000273091F02830A1F02430B9F480918000D6
:1007D0008F7D03C0809180008F77809380000DC053
:1007E00084B58F7784BD09C08091B0008F7703C036
:1007F0008091B0008F7D8093B000F0E0EE0FFF1F7E
:10080000E057FF4FA591B4919FB7F894611104C0D0
:100810008C913095382302C0EC913E2B3C939FBFC6
:100820000895CF93DF9310927E0110927D0188EEA0
:1008300093E0A0E0B0E080937F0190938001A093CB
:100840008101B09382012AE031E030937C01209352
:100850007B0125EC30E0309388012093870124EC64
:1008600030E030938A012093890120EC30E030930E
:100870008C0120938B0121EC30E030938E0120938A
:100880008D0122EC30E03093900120938F0126EC13
:1008900030E03093920120939101109294011092D4
:1008A00095011092960110929701109221021092D8
:1008B00020028093220290932302A0932402B093FB
:1008C00025028CE191E090931F0280931E0210920A
:1008D00035021092340210923702109236021092B2
:1008E00039021092380210923B0210923A02609143
:1008F0003C026E7F6D7F60933C026695617081E083
:10090000682785E00E94C403E3EBF0E02491EFE95F
:10091000F0E08491882399F090E0880F991FFC0102
:10092000EA57FF4FA591B491FC01E057FF4F859125
:1009300094918FB7F894EC91E22BEC938FBFE3EB9B
:10094000F0E0E491E0932E02EFE9F0E0E491F0E0D2
:10095000EE0FFF1FE057FF4F859194919093300267
:1009600080932F02E2EBF0E02491EEE9F0E0849135
:100970008823C1F090E0880F991FFC01EA57FF4FD0
:10098000C591D491FC01E057FF4FA591B4919FB759
:10099000F8948881E22FE0958E2388838C91E82358
:1009A000EC939FBF80913C0281FD04C061E084E034
:1009B0000E94C40384E080932A02E2EBF0E0E49119
:1009C000E0932B02EEE9F0E0E491F0E0EE0FFF1F80
:1009D000E458FF4F8591949190932D0280932C02BF
:1009E000109219021092180210921B0210921A0211
:1009F00010921D0210921C0260E070E088E192E00B
:100A00000E9481022091180230911902811115C0B3
:100A10002115310519F0C9010E940208109219022E
:100A20001092180210921D0210921C0210921B02CA
:100A300010921A02DF91CF91089510921D02109228
:100A40001C026CE271E0C901DF91CF910C945F0947
:100A5000CF93DF93CDB7DEB728970FB6F894DEBFFC
:100A60000FBECDBF789484B5826084BD84B58160AB
:100A700084BD85B5826085BD85B5816085BD809169
:100A80006E00816080936E001092810080918100E1
:100A900082608093810080918100816080938100D9
:100AA000809180008160809380008091B10084609B
:100AB0008093B1008091B00081608093B0008091FC
:100AC0007A00846080937A0080917A0082608093BB
:100AD0007A0080917A00816080937A0080917A0018
:100AE000806880937A001092C100109239021092AF
:100AF000380210923702109236021092350210928C
:100B000034028DE991E090933B0280933A029091F8
:100B10002A02963108F058C02DEB30E030933502B0
:100B2000209334022BE931E03093370220933602D0
:100B30002CE231E030933902209338024091680072
:100B4000983058F031E09E3008F430E021E0822FF8
:100B500001C0880F3A95EAF701C084E0842B8093A6
:100B60006800983038F09E3040F0963148F42CE61A
:100B700030E008C02DE630E005C02BE630E002C0D2
:100B800020E030E03093320220933102983030F48C
:100B900081E001C0880F9A95EAF70EC0292F30E056
:100BA0009E3018F42850310902C02E50310981E0DE
:100BB00001C0880F2A95EAF78093330280913A02A8
:100BC00090913B020197F1F78091380290913902A0
:100BD000892B49F1E0917001F091710182E0EE31D1
:100BE000F80709F1309739F0A389B4899C91858978
:100BF000809589238C9380913C028E7F80933C0268
:100C000010926F0110926E018EE192E0909371014B
:100C100080937001E0913102F091320290818091D5
:100C20003302892B8083E0918B01F0918C0182E06B
:100C30008083E0918701F09188011082E091890121
:100C4000F0918A018FEC808310929301E0918F01E3
:100C5000F091900186E08083E0918D01F0918E010A
:100C6000808180618083E0918D01F0918E0180818F
:100C700088608083E0918D01F0918E018081806891
:100C80008083E0918D01F0918E0180818F7D808342
:100C90008EE192E00E940302892B09F47FC01A8240
:100CA00019821C821B821E821D8260E070E0CE01D0
:100CB00001960E94810229813A8181110DC021157E
:100CC000310519F0C9010E9402081A8219821E8298
:100CD0001D821C821B8207C01E821D826CE271E095
:100CE000C9010E945F090E943C0297FD1EC0863424
:100CF0009105D9F08F8318860D811E810F5F1F4FDC
:100D0000B801CE0101960E948102882361F32981F6
:100D10003A818D819E81BE01695F7F4F820F931F53
:100D20000E945F091E830D83DECF8091180290918F
:100D30001902009739F069817A816115710589F589
:100D40000E94020889819A81909319028093180267
:100D50008B819C8190931B0280931A028D819E81CE
:100D600090931D0280931C021A82198289819A81B4
:100D70000E94020840911C0250911D0260911802CD
:100D8000709119028BE791E00E948E0042E050E0E2
:100D90006AE271E08BE791E00E948E000E94900170
:100DA00077CF40911A0250911B022D813E8142174C
:100DB000530730F20E945F098D819E8190931D023E
:100DC00080931C02D3CF80911802909119020E9447
:100DD00002088CE191E090931F0280931E028091A3
:100DE0007001909171018E51924071F4E091310245
:100DF000F091320290818091330280958923808323
:100E0000109271011092700108952F923F924F92AB
:100E10005F926F927F928F929F92AF92BF92CF928A
:100E2000DF92EF92FF920F931F93CF93DF93CDB793
:100E3000DEB7CA1BDB0B0FB6F894DEBF0FBECDBF0B
:100E400009942A88398848885F846E847D848C84DC
:100E50009B84AA84B984C884DF80EE80FD800C81E5
:100E60001B81AA81B981CE0FD11D0FB6F894DEBFC8
:100E70000FBECDBFED01089597FB072E16F4009429
:100E800007D077FD09D00E94500707FC05D03EF43B
:100E9000909581959F4F0895709561957F4F089526
:100EA000AA1BBB1B51E107C0AA1FBB1FA617B70790
:100EB00010F0A61BB70B881F991F5A95A9F78095AC
:100EC0009095BC01CD010895EE0FFF1F0590F491A0
:100ED000E02D09940F931F93CF93DF9382309105F8
:100EE00010F482E090E0E0913F02F091400220E0B7
:100EF00030E0A0E0B0E0309719F1408151810281EB
:100F0000138148175907C8F08417950769F410979B
:100F100031F012960C93129713961C9327C00093EE
:100F20003F021093400222C02115310519F04217EB
:100F3000530718F49A01BD01EF01DF01F801DBCF7F
:100F400021153105F9F0281B390B2430310580F4C7
:100F50008A819B816115710521F0FB019383828356
:100F600004C09093400280933F02FE01329644C039
:100F7000FE01E20FF31F81939193225031093983CF
:100F800028833AC020913D0230913E02232B41F448
:100F9000209102013091030130933E0220933D02E3
:100FA00020910001309101012115310541F42DB747
:100FB0003EB74091040150910501241B350BE0918F
:100FC0003D02F0913E02E217F307A0F42E1B3F0B07
:100FD0002817390778F0AC014E5F5F4F24173507AB
:100FE00048F04E0F5F1F50933E0240933D028193A5
:100FF000919302C0E0E0F0E0CF01DF91CF911F912B
:101000000F910895CF93DF93009709F481C0FC01FD
:10101000329713821282A0913F02B0914002109742
:1010200081F420813181820F931F20913D02309104
:101030003E022817390751F5F0933E02E0933D0236
:1010400067C0ED0120E030E0CE17DF0740F44A81B1
:101050005B819E0141155105F1F0EA01F5CFD38383
:10106000C28340815181840F951FC817D90759F455
:1010700088819981840F951F0296918380838A814C
:101080009B81938382832115310529F4F0934002DB
:10109000E0933F023DC0E901FB83EA834991599106
:1010A000C40FD51FEC17FD0761F480819181840F77
:1010B000951F0296E90199838883828193819B839E
:1010C0008A83E0E0F0E012968D919C91139700974F
:1010D00019F0FD01DC01F7CF8D919C9111979D01D5
:1010E0002E5F3F4F820F931F20913D0230913E02B1
:1010F0002817390769F4309729F4109240021092AA
:101100003F0202C013821282B0933E02A0933D02BE
:10111000DF91CF910895A0E0B0E0E1E9F8E00C9410
:101120000907EC01009721F4CB010E946A07B4C0C3
:10113000FC01E60FF71F9C0122503109E217F3076B
:1011400008F4A8C0D9010D911C9111970617170733
:10115000B0F00530110508F49BC0C801049786174C
:10116000970708F495C002501109061B170B01934D
:1011700011936D937C93CF010E94020889C05B019B
:10118000A01AB10A4C01800E911EA0913F02B091AD
:101190004002612C712CE12CF12C109709F446C00F
:1011A0008D919C911197A815B905B1F56C0142E09C
:1011B000C40ED11CCA14DB0478F14C018A189B08B8
:1011C000640142E0C40ED11C1296BC901297139693
:1011D000AC91B5E0CB16D10440F0B282A3839182EA
:1011E0008082D9016D937C9309C00E5F1F4F800FE1
:1011F000911FF90191838083EB2DFA2FE114F10403
:1012000031F0D7011396FC93EE93129741C0F093FF
:101210004002E0933F023CC06816790608F43C01A6
:101220007D0112960D90BC91A02DB7CF80913D020B
:1012300090913E0288169906E1F466167706C8F486
:101240008091000190910101009741F48DB79EB704
:101250004091040150910501841B950BE817F90793
:10126000C8F4F0933E02E0933D02F901718360837C
:101270000FC0CB010E946A077C01009759F0A801BA
:10128000BE010E945609CE010E940208C70104C097
:10129000CE0102C080E090E0CDB7DEB7EEE00C9466
:1012A000250781E090E0F8940C946609FB01DC01CD
:1012B00002C001900D9241505040D8F70895FB01B3
:1012C000DC0101900D920020E1F7089510E0C2E6E4
:1012D000D0E004C0FE010E9464072196C336D10706
:0612E000C9F7F894FFCFEE
:1012E6000000410280000000000021018E00B800CD
:1012F6006E01E900C700DB0000000000B3018E00AC
:0E1306007C02B20103021B029A010D0A0000D4
:00000001FF
