:100000000C945C000C946E000C946E000C946E00CA
:100010000C946E000C946E000C946E000C946E00A8
:100020000C946E000C946E000C946E000C946E0098
:100030000C946E000C946E000C946E000C946E0088
:100040000C9470000C946E000C946E000C946E0076
:100050000C946E000C946E000C946E000C946E0068
:100060000C946E000C946E00000000002400270029
:100070002A0000000000250028002B0004040404CE
:100080000404040402020202020203030303030342
:10009000010204081020408001020408102001021F
:1000A00004081020000000080002010000030407FB
:1000B000000000000000000011241FBECFEFD8E0B8
:1000C000DEBFCDBF21E0A0E0B1E001C01D92A930AC
:1000D000B207E1F70E94BA000C946A010C94000088
:1000E0001F920F920FB60F9211242F933F938F936D
:1000F0009F93AF93BF938091050190910601A091CA
:100100000701B09108013091040123E0230F2D373E
:1001100020F40196A11DB11D05C026E8230F02960B
:10012000A11DB11D20930401809305019093060148
:10013000A0930701B0930801809100019091010103
:10014000A0910201B09103010196A11DB11D809300
:10015000000190930101A0930201B0930301BF91AC
:10016000AF919F918F913F912F910F900FBE0F9064
:100170001F901895789484B5826084BD84B58160A1
:1001800084BD85B5826085BD85B5816085BD809162
:100190006E00816080936E001092810080918100DA
:1001A00082608093810080918100816080938100D2
:1001B000809180008160809380008091B100846094
:1001C0008093B1008091B00081608093B0008091F5
:1001D0007A00846080937A0080917A0082608093B4
:1001E0007A0080917A00816080937A0080917A0011
:1001F000806880937A001092C100CDE9D0E0FE01C2
:10020000249109E810E0F8018491882399F090E0A6
:10021000880F991FFC01E859FF4FA591B491FC018B
:10022000EE58FF4F859194919FB7F8948C91822B53
:100230008C939FBF91EBE92E90E0F92E20E0C22E27
:1002400020E0D22EF7018491FE012491F8019491CF
:100250009923C9F1882339F1833091F038F4813042
:10026000A9F0823001F584B58F7D12C0873091F0FE
:100270008830A1F08430B9F4809180008F7D03C074
:10028000809180008F77809380000DC084B58F7738
:1002900084BD09C08091B0008F7703C08091B00009
:1002A0008F7D8093B000E92FF0E0EE0FFF1FEE5836
:1002B000FF4FA591B4913FB7F8949C91822F809500
:1002C00089238C933FBFC114D10409F4BBCF0E9492
:0802D0000000B8CFF894FFCF45
:00000001FF
